{
  "contractName": "AdministratorProvider",
  "abi": [
    {
      "inputs": [
        {
          "internalType": "contract AdministratorInterface",
          "name": "_administratorCollection",
          "type": "address"
        }
      ],
      "payable": false,
      "stateMutability": "nonpayable",
      "type": "constructor"
    },
    {
      "constant": true,
      "inputs": [],
      "name": "administratorCollection",
      "outputs": [
        {
          "internalType": "contract AdministratorInterface",
          "name": "",
          "type": "address"
        }
      ],
      "payable": false,
      "stateMutability": "view",
      "type": "function"
    },
    {
      "constant": true,
      "inputs": [],
      "name": "administratorProviderMinter",
      "outputs": [
        {
          "internalType": "address",
          "name": "",
          "type": "address"
        }
      ],
      "payable": false,
      "stateMutability": "view",
      "type": "function"
    },
    {
      "constant": false,
      "inputs": [
        {
          "internalType": "contract AdministratorInterface",
          "name": "_administratorCollection",
          "type": "address"
        }
      ],
      "name": "setAdministratorCollection",
      "outputs": [],
      "payable": true,
      "stateMutability": "payable",
      "type": "function"
    },
    {
      "constant": true,
      "inputs": [],
      "name": "getAdministratorCollection",
      "outputs": [
        {
          "internalType": "contract AdministratorInterface",
          "name": "",
          "type": "address"
        }
      ],
      "payable": false,
      "stateMutability": "view",
      "type": "function"
    }
  ],
  "bytecode": "0x608060405234801561001057600080fd5b506040516104123803806104128339818101604052602081101561003357600080fd5b8101908080519060200190929190505050336000806101000a81548173ffffffffffffffffffffffffffffffffffffffff021916908373ffffffffffffffffffffffffffffffffffffffff16021790555080600160006101000a81548173ffffffffffffffffffffffffffffffffffffffff021916908373ffffffffffffffffffffffffffffffffffffffff1602179055505061033d806100d56000396000f3fe60806040526004361061003f5760003560e01c80630b62b933146100445780634be4ca201461009b578063c42d435c146100f2578063c83831e614610149575b600080fd5b34801561005057600080fd5b5061005961018d565b604051808273ffffffffffffffffffffffffffffffffffffffff1673ffffffffffffffffffffffffffffffffffffffff16815260200191505060405180910390f35b3480156100a757600080fd5b506100b06101b7565b604051808273ffffffffffffffffffffffffffffffffffffffff1673ffffffffffffffffffffffffffffffffffffffff16815260200191505060405180910390f35b3480156100fe57600080fd5b506101076101dd565b604051808273ffffffffffffffffffffffffffffffffffffffff1673ffffffffffffffffffffffffffffffffffffffff16815260200191505060405180910390f35b61018b6004803603602081101561015f57600080fd5b81019080803573ffffffffffffffffffffffffffffffffffffffff169060200190929190505050610202565b005b6000600160009054906101000a900473ffffffffffffffffffffffffffffffffffffffff16905090565b600160009054906101000a900473ffffffffffffffffffffffffffffffffffffffff1681565b6000809054906101000a900473ffffffffffffffffffffffffffffffffffffffff1681565b3373ffffffffffffffffffffffffffffffffffffffff166000809054906101000a900473ffffffffffffffffffffffffffffffffffffffff1673ffffffffffffffffffffffffffffffffffffffff16146102c4576040517f08c379a00000000000000000000000000000000000000000000000000000000081526004018080602001828103825260148152602001807f556e617568746f72697a6564206163636573732100000000000000000000000081525060200191505060405180910390fd5b80600160006101000a81548173ffffffffffffffffffffffffffffffffffffffff021916908373ffffffffffffffffffffffffffffffffffffffff1602179055505056fea265627a7a72315820a59f269d7a26e09a5709d197851b5fdb78cb8468305ec7c2e31aa0e5baef0a8c64736f6c63430005100032",
  "source": "pragma solidity >= 0.4.22 < 0.7.0;\n\nimport './Administrator.sol';\n\ncontract AdministratorProvider {\n    address public administratorProviderMinter;\n    \n    AdministratorInterface public administratorCollection;\n    \n    constructor(AdministratorInterface _administratorCollection) public {\n        administratorProviderMinter = msg.sender;\n        \n        administratorCollection = _administratorCollection;\n    }\n    \n    function setAdministratorCollection(AdministratorInterface _administratorCollection) payable public {\n        require (administratorProviderMinter == msg.sender, 'Unauhtorized access!');\n        \n        administratorCollection = _administratorCollection;\n    }\n    \n    function getAdministratorCollection() public view returns (AdministratorInterface) {\n        return administratorCollection;\n    }\n}",
  "sourcePath": "/Users/muhammadtaimoor/Projects/ssid/contracts/AdministratorProvider.sol",
  "compiler": {
    "name": "solc",
    "version": "0.5.16+commit.9c3226ce.Emscripten.clang"
  },
  "schemaVersion": "3.3.2",
  "updatedAt": "2021-07-25T22:58:07.211Z",
  "devdoc": {
    "methods": {}
  },
  "userdoc": {
    "methods": {}
  }
}