{
  "contractName": "AdministratorDependent",
  "abi": [
    {
      "inputs": [
        {
          "internalType": "contract AdministratorProvider",
          "name": "_administratorProvider",
          "type": "address"
        }
      ],
      "payable": false,
      "stateMutability": "nonpayable",
      "type": "constructor"
    },
    {
      "constant": true,
      "inputs": [],
      "name": "administratorProvider",
      "outputs": [
        {
          "internalType": "contract AdministratorProvider",
          "name": "",
          "type": "address"
        }
      ],
      "payable": false,
      "stateMutability": "view",
      "type": "function"
    }
  ],
  "bytecode": "0x608060405234801561001057600080fd5b506040516101623803806101628339818101604052602081101561003357600080fd5b8101908080519060200190929190505050806000806101000a81548173ffffffffffffffffffffffffffffffffffffffff021916908373ffffffffffffffffffffffffffffffffffffffff1602179055505060cf806100936000396000f3fe6080604052348015600f57600080fd5b506004361060285760003560e01c8063fd0ae08314602d575b600080fd5b60336075565b604051808273ffffffffffffffffffffffffffffffffffffffff1673ffffffffffffffffffffffffffffffffffffffff16815260200191505060405180910390f35b6000809054906101000a900473ffffffffffffffffffffffffffffffffffffffff168156fea265627a7a72315820fd873ba8cd8c3394bb05224055302cfbe85f5686cd5ba97c051f62c0a824483164736f6c63430005100032",
  "source": "pragma solidity >= 0.4.22 < 0.7.0;\n\nimport './AdministratorProvider.sol';\n\ncontract AdministratorDependent {\n    AdministratorProvider public administratorProvider;\n    \n    constructor(AdministratorProvider _administratorProvider) public {\n        administratorProvider = _administratorProvider;\n    }\n    \n    modifier onlyAdministrator(address _address) {\n        require(administratorProvider.administratorCollection().isAdministrator(msg.sender), 'Unauthorized Access!');\n        _;\n    }\n}",
  "sourcePath": "/Users/muhammadtaimoor/Projects/ssid/contracts/AdministratorDependent.sol",
  "compiler": {
    "name": "solc",
    "version": "0.5.16+commit.9c3226ce.Emscripten.clang"
  },
  "schemaVersion": "3.3.2",
  "updatedAt": "2021-07-25T22:58:07.210Z",
  "devdoc": {
    "methods": {}
  },
  "userdoc": {
    "methods": {}
  }
}