{
  "contractName": "Administrator",
  "abi": [
    {
      "inputs": [],
      "payable": false,
      "stateMutability": "nonpayable",
      "type": "constructor"
    },
    {
      "anonymous": false,
      "inputs": [
        {
          "indexed": true,
          "internalType": "address",
          "name": "_administrator",
          "type": "address"
        },
        {
          "indexed": true,
          "internalType": "address",
          "name": "_admin",
          "type": "address"
        },
        {
          "indexed": true,
          "internalType": "bool",
          "name": "_active",
          "type": "bool"
        }
      ],
      "name": "AdministratorManipulated",
      "type": "event"
    },
    {
      "constant": true,
      "inputs": [],
      "name": "administratorMinter",
      "outputs": [
        {
          "internalType": "address",
          "name": "",
          "type": "address"
        }
      ],
      "payable": false,
      "stateMutability": "view",
      "type": "function"
    },
    {
      "constant": false,
      "inputs": [
        {
          "internalType": "address",
          "name": "_address",
          "type": "address"
        }
      ],
      "name": "grant",
      "outputs": [],
      "payable": true,
      "stateMutability": "payable",
      "type": "function"
    },
    {
      "constant": false,
      "inputs": [
        {
          "internalType": "address",
          "name": "_administrator",
          "type": "address"
        }
      ],
      "name": "revoke",
      "outputs": [],
      "payable": true,
      "stateMutability": "payable",
      "type": "function"
    },
    {
      "constant": true,
      "inputs": [
        {
          "internalType": "address",
          "name": "_administrator",
          "type": "address"
        }
      ],
      "name": "isAdministrator",
      "outputs": [
        {
          "internalType": "bool",
          "name": "",
          "type": "bool"
        }
      ],
      "payable": false,
      "stateMutability": "view",
      "type": "function"
    }
  ],
  "bytecode": "0x608060405234801561001057600080fd5b50336000806101000a81548173ffffffffffffffffffffffffffffffffffffffff021916908373ffffffffffffffffffffffffffffffffffffffff16021790555060018060003373ffffffffffffffffffffffffffffffffffffffff1673ffffffffffffffffffffffffffffffffffffffff16815260200190815260200160002060006101000a81548160ff021916908315150217905550600115153373ffffffffffffffffffffffffffffffffffffffff163373ffffffffffffffffffffffffffffffffffffffff167f2ba4d8d59d05f6293a4223b50d6d666a8aa557604956762833338fd95cbb317f60405160405180910390a46104a7806101156000396000f3fe60806040526004361061003f5760003560e01c80630a2eb3011461004457806370284d19146100ad57806374a8f103146100f15780639f100aa014610135575b600080fd5b34801561005057600080fd5b506100936004803603602081101561006757600080fd5b81019080803573ffffffffffffffffffffffffffffffffffffffff16906020019092919050505061018c565b604051808215151515815260200191505060405180910390f35b6100ef600480360360208110156100c357600080fd5b81019080803573ffffffffffffffffffffffffffffffffffffffff1690602001909291905050506101e2565b005b6101336004803603602081101561010757600080fd5b81019080803573ffffffffffffffffffffffffffffffffffffffff169060200190929190505050610317565b005b34801561014157600080fd5b5061014a61044d565b604051808273ffffffffffffffffffffffffffffffffffffffff1673ffffffffffffffffffffffffffffffffffffffff16815260200191505060405180910390f35b6000600160008373ffffffffffffffffffffffffffffffffffffffff1673ffffffffffffffffffffffffffffffffffffffff16815260200190815260200160002060009054906101000a900460ff169050919050565b336101ec8161018c565b61025e576040517f08c379a00000000000000000000000000000000000000000000000000000000081526004018080602001828103825260148152602001807f556e617568746f72697a6564204163636573732100000000000000000000000081525060200191505060405180910390fd5b60018060008473ffffffffffffffffffffffffffffffffffffffff1673ffffffffffffffffffffffffffffffffffffffff16815260200190815260200160002060006101000a81548160ff021916908315150217905550600115158273ffffffffffffffffffffffffffffffffffffffff163373ffffffffffffffffffffffffffffffffffffffff167f2ba4d8d59d05f6293a4223b50d6d666a8aa557604956762833338fd95cbb317f60405160405180910390a45050565b336103218161018c565b610393576040517f08c379a00000000000000000000000000000000000000000000000000000000081526004018080602001828103825260148152602001807f556e617568746f72697a6564204163636573732100000000000000000000000081525060200191505060405180910390fd5b6000600160008473ffffffffffffffffffffffffffffffffffffffff1673ffffffffffffffffffffffffffffffffffffffff16815260200190815260200160002060006101000a81548160ff021916908315150217905550600015158273ffffffffffffffffffffffffffffffffffffffff163373ffffffffffffffffffffffffffffffffffffffff167f2ba4d8d59d05f6293a4223b50d6d666a8aa557604956762833338fd95cbb317f60405160405180910390a45050565b6000809054906101000a900473ffffffffffffffffffffffffffffffffffffffff168156fea265627a7a72315820a3a67fbc749272b007973e2ce287f1fb75a43b9591569b63b441a4c2b1fd1b9364736f6c63430005100032",
  "source": "pragma solidity >= 0.4.22 < 0.7.0;\n\ninterface AdministratorInterface {\n    function grant(address _admin) external payable;\n   \n    function revoke(address _admin) external payable;\n   \n    function isAdministrator(address _admin) external view returns(bool);\n}\n\ncontract Administrator is AdministratorInterface {\n    address public administratorMinter;\n   \n    mapping (address => bool) administratorCollection;\n    \n    event AdministratorManipulated(address indexed _administrator, address indexed _admin, bool indexed _active);\n   \n    constructor() public {\n        administratorMinter = msg.sender;\n        \n        administratorCollection[msg.sender] = true;\n\n        emit AdministratorManipulated(msg.sender, msg.sender, true);\n    }\n\n    modifier onlyAdministrator(address _address) {\n        require(isAdministrator(_address), 'Unauhtorized Access!');\n        _;\n    }\n\n    function grant(address _address) onlyAdministrator(msg.sender) public payable {\n        administratorCollection[_address] = true;\n\n        emit AdministratorManipulated(msg.sender, _address, true);\n    }\n   \n    function revoke(address _administrator) onlyAdministrator(msg.sender) public payable {\n        administratorCollection[_administrator] = false;\n        \n        emit AdministratorManipulated(msg.sender, _administrator, false);\n    }\n   \n    function isAdministrator(address _administrator) public view returns(bool) {\n        return administratorCollection[_administrator];\n    }\n}",
  "sourcePath": "/Users/muhammadtaimoor/Projects/ssid/contracts/Administrator.sol",
  "compiler": {
    "name": "solc",
    "version": "0.5.16+commit.9c3226ce.Emscripten.clang"
  },
  "schemaVersion": "3.3.2",
  "updatedAt": "2021-07-25T22:58:07.203Z",
  "devdoc": {
    "methods": {}
  },
  "userdoc": {
    "methods": {}
  }
}