{
  "contractName": "IsserDependent",
  "abi": [
    {
      "inputs": [
        {
          "internalType": "contract IssuerProvider",
          "name": "_issuerProvider",
          "type": "address"
        }
      ],
      "payable": false,
      "stateMutability": "nonpayable",
      "type": "constructor"
    },
    {
      "constant": true,
      "inputs": [],
      "name": "issuerProvider",
      "outputs": [
        {
          "internalType": "contract IssuerProvider",
          "name": "",
          "type": "address"
        }
      ],
      "payable": false,
      "stateMutability": "view",
      "type": "function"
    }
  ],
  "bytecode": "0x608060405234801561001057600080fd5b506040516101623803806101628339818101604052602081101561003357600080fd5b8101908080519060200190929190505050806000806101000a81548173ffffffffffffffffffffffffffffffffffffffff021916908373ffffffffffffffffffffffffffffffffffffffff1602179055505060cf806100936000396000f3fe6080604052348015600f57600080fd5b506004361060285760003560e01c8063e831dd7014602d575b600080fd5b60336075565b604051808273ffffffffffffffffffffffffffffffffffffffff1673ffffffffffffffffffffffffffffffffffffffff16815260200191505060405180910390f35b6000809054906101000a900473ffffffffffffffffffffffffffffffffffffffff168156fea265627a7a723158203191f192c28b0d9f0917aef24bc5ee4dfb5241f24951962230e1a9d6d4e8d9e464736f6c63430005100032",
  "source": "pragma solidity >=0.4.22 <0.7.0;\n\nimport './IssuerProvider.sol';\n\ncontract IsserDependent {\n    IssuerProvider public issuerProvider;\n\n    constructor(IssuerProvider _issuerProvider) public {\n        issuerProvider = _issuerProvider;\n    }\n\n    modifier onlyIssuer(address _address) {\n        require(issuerProvider.issuerCollection().isIssuer(_address), 'Unauthorized access!');\n        _;\n    }\n}",
  "sourcePath": "/Users/muhammadtaimoor/Projects/ssid/contracts/IssuerDependent.sol",
  "compiler": {
    "name": "solc",
    "version": "0.5.16+commit.9c3226ce.Emscripten.clang"
  },
  "schemaVersion": "3.3.2",
  "updatedAt": "2021-07-25T22:58:07.227Z",
  "devdoc": {
    "methods": {}
  },
  "userdoc": {
    "methods": {}
  }
}