{
  "contractName": "Issuer",
  "abi": [
    {
      "inputs": [
        {
          "internalType": "contract AdministratorProvider",
          "name": "_administratorProvider",
          "type": "address"
        },
        {
          "internalType": "contract UserProvider",
          "name": "_userProvider",
          "type": "address"
        }
      ],
      "payable": false,
      "stateMutability": "nonpayable",
      "type": "constructor"
    },
    {
      "anonymous": false,
      "inputs": [
        {
          "indexed": true,
          "internalType": "address",
          "name": "_administrator",
          "type": "address"
        },
        {
          "indexed": true,
          "internalType": "address",
          "name": "_issuer",
          "type": "address"
        },
        {
          "indexed": true,
          "internalType": "bool",
          "name": "_active",
          "type": "bool"
        }
      ],
      "name": "IssuerManiuplated",
      "type": "event"
    },
    {
      "constant": true,
      "inputs": [],
      "name": "administratorProvider",
      "outputs": [
        {
          "internalType": "contract AdministratorProvider",
          "name": "",
          "type": "address"
        }
      ],
      "payable": false,
      "stateMutability": "view",
      "type": "function"
    },
    {
      "constant": true,
      "inputs": [],
      "name": "userProvider",
      "outputs": [
        {
          "internalType": "contract UserProvider",
          "name": "",
          "type": "address"
        }
      ],
      "payable": false,
      "stateMutability": "view",
      "type": "function"
    },
    {
      "constant": false,
      "inputs": [
        {
          "internalType": "address",
          "name": "_address",
          "type": "address"
        }
      ],
      "name": "grant",
      "outputs": [],
      "payable": true,
      "stateMutability": "payable",
      "type": "function"
    },
    {
      "constant": false,
      "inputs": [
        {
          "internalType": "address",
          "name": "_issuer",
          "type": "address"
        }
      ],
      "name": "revoke",
      "outputs": [],
      "payable": true,
      "stateMutability": "payable",
      "type": "function"
    },
    {
      "constant": true,
      "inputs": [
        {
          "internalType": "address",
          "name": "_issuer",
          "type": "address"
        }
      ],
      "name": "isIssuer",
      "outputs": [
        {
          "internalType": "bool",
          "name": "",
          "type": "bool"
        }
      ],
      "payable": false,
      "stateMutability": "view",
      "type": "function"
    }
  ],
  "bytecode": "0x608060405234801561001057600080fd5b5060405161110e38038061110e8339818101604052604081101561003357600080fd5b8101908080519060200190929190805190602001909291905050508082806000806101000a81548173ffffffffffffffffffffffffffffffffffffffff021916908373ffffffffffffffffffffffffffffffffffffffff1602179055505080600160006101000a81548173ffffffffffffffffffffffffffffffffffffffff021916908373ffffffffffffffffffffffffffffffffffffffff16021790555050336000809054906101000a900473ffffffffffffffffffffffffffffffffffffffff1673ffffffffffffffffffffffffffffffffffffffff16634be4ca206040518163ffffffff1660e01b815260040160206040518083038186803b15801561013b57600080fd5b505afa15801561014f573d6000803e3d6000fd5b505050506040513d602081101561016557600080fd5b810190808051906020019092919050505073ffffffffffffffffffffffffffffffffffffffff16630a2eb301336040518263ffffffff1660e01b8152600401808273ffffffffffffffffffffffffffffffffffffffff1673ffffffffffffffffffffffffffffffffffffffff16815260200191505060206040518083038186803b1580156101f257600080fd5b505afa158015610206573d6000803e3d6000fd5b505050506040513d602081101561021c57600080fd5b810190808051906020019092919050505061029f576040517f08c379a00000000000000000000000000000000000000000000000000000000081526004018080602001828103825260148152602001807f556e617574686f72697a6564204163636573732100000000000000000000000081525060200191505060405180910390fd5b82600260006101000a81548173ffffffffffffffffffffffffffffffffffffffff021916908373ffffffffffffffffffffffffffffffffffffffff16021790555081600360006101000a81548173ffffffffffffffffffffffffffffffffffffffff021916908373ffffffffffffffffffffffffffffffffffffffff160217905550505050610ddb806103336000396000f3fe60806040526004361061004a5760003560e01c806370284d191461004f57806374a8f10314610093578063877b9a67146100d7578063c3bf488714610140578063fd0ae08314610197575b600080fd5b6100916004803603602081101561006557600080fd5b81019080803573ffffffffffffffffffffffffffffffffffffffff1690602001909291905050506101ee565b005b6100d5600480360360208110156100a957600080fd5b81019080803573ffffffffffffffffffffffffffffffffffffffff169060200190929190505050610779565b005b3480156100e357600080fd5b50610126600480360360208110156100fa57600080fd5b81019080803573ffffffffffffffffffffffffffffffffffffffff169060200190929190505050610d04565b604051808215151515815260200191505060405180910390f35b34801561014c57600080fd5b50610155610d5a565b604051808273ffffffffffffffffffffffffffffffffffffffff1673ffffffffffffffffffffffffffffffffffffffff16815260200191505060405180910390f35b3480156101a357600080fd5b506101ac610d80565b604051808273ffffffffffffffffffffffffffffffffffffffff1673ffffffffffffffffffffffffffffffffffffffff16815260200191505060405180910390f35b806000600160009054906101000a900473ffffffffffffffffffffffffffffffffffffffff1673ffffffffffffffffffffffffffffffffffffffff16638345424e6040518163ffffffff1660e01b815260040160206040518083038186803b15801561025957600080fd5b505afa15801561026d573d6000803e3d6000fd5b505050506040513d602081101561028357600080fd5b810190808051906020019092919050505073ffffffffffffffffffffffffffffffffffffffff1663f5c2b123836040518263ffffffff1660e01b8152600401808273ffffffffffffffffffffffffffffffffffffffff1673ffffffffffffffffffffffffffffffffffffffff16815260200191505060206040518083038186803b15801561031057600080fd5b505afa158015610324573d6000803e3d6000fd5b505050506040513d602081101561033a57600080fd5b810190808051906020019092919050505090506000600160009054906101000a900473ffffffffffffffffffffffffffffffffffffffff1673ffffffffffffffffffffffffffffffffffffffff16638345424e6040518163ffffffff1660e01b815260040160206040518083038186803b1580156103b757600080fd5b505afa1580156103cb573d6000803e3d6000fd5b505050506040513d60208110156103e157600080fd5b810190808051906020019092919050505073ffffffffffffffffffffffffffffffffffffffff166318a9cc1b836040518263ffffffff1660e01b81526004018082815260200191505060206040518083038186803b15801561044257600080fd5b505afa158015610456573d6000803e3d6000fd5b505050506040513d602081101561046c57600080fd5b810190808051906020019092919050505014156104f1576040517f08c379a00000000000000000000000000000000000000000000000000000000081526004018080602001828103825260148152602001807f556e617574686f72697a6564206163636573732100000000000000000000000081525060200191505060405180910390fd5b336000809054906101000a900473ffffffffffffffffffffffffffffffffffffffff1673ffffffffffffffffffffffffffffffffffffffff16634be4ca206040518163ffffffff1660e01b815260040160206040518083038186803b15801561055957600080fd5b505afa15801561056d573d6000803e3d6000fd5b505050506040513d602081101561058357600080fd5b810190808051906020019092919050505073ffffffffffffffffffffffffffffffffffffffff16630a2eb301336040518263ffffffff1660e01b8152600401808273ffffffffffffffffffffffffffffffffffffffff1673ffffffffffffffffffffffffffffffffffffffff16815260200191505060206040518083038186803b15801561061057600080fd5b505afa158015610624573d6000803e3d6000fd5b505050506040513d602081101561063a57600080fd5b81019080805190602001909291905050506106bd576040517f08c379a00000000000000000000000000000000000000000000000000000000081526004018080602001828103825260148152602001807f556e617574686f72697a6564204163636573732100000000000000000000000081525060200191505060405180910390fd5b6001600460008673ffffffffffffffffffffffffffffffffffffffff1673ffffffffffffffffffffffffffffffffffffffff16815260200190815260200160002060006101000a81548160ff021916908315150217905550600115158473ffffffffffffffffffffffffffffffffffffffff163373ffffffffffffffffffffffffffffffffffffffff167fb1d7a469cec0b763a8421ded0cfa85fe843ae43275557dbda8786d19855a86be60405160405180910390a450505050565b806000600160009054906101000a900473ffffffffffffffffffffffffffffffffffffffff1673ffffffffffffffffffffffffffffffffffffffff16638345424e6040518163ffffffff1660e01b815260040160206040518083038186803b1580156107e457600080fd5b505afa1580156107f8573d6000803e3d6000fd5b505050506040513d602081101561080e57600080fd5b810190808051906020019092919050505073ffffffffffffffffffffffffffffffffffffffff1663f5c2b123836040518263ffffffff1660e01b8152600401808273ffffffffffffffffffffffffffffffffffffffff1673ffffffffffffffffffffffffffffffffffffffff16815260200191505060206040518083038186803b15801561089b57600080fd5b505afa1580156108af573d6000803e3d6000fd5b505050506040513d60208110156108c557600080fd5b810190808051906020019092919050505090506000600160009054906101000a900473ffffffffffffffffffffffffffffffffffffffff1673ffffffffffffffffffffffffffffffffffffffff16638345424e6040518163ffffffff1660e01b815260040160206040518083038186803b15801561094257600080fd5b505afa158015610956573d6000803e3d6000fd5b505050506040513d602081101561096c57600080fd5b810190808051906020019092919050505073ffffffffffffffffffffffffffffffffffffffff166318a9cc1b836040518263ffffffff1660e01b81526004018082815260200191505060206040518083038186803b1580156109cd57600080fd5b505afa1580156109e1573d6000803e3d6000fd5b505050506040513d60208110156109f757600080fd5b81019080805190602001909291905050501415610a7c576040517f08c379a00000000000000000000000000000000000000000000000000000000081526004018080602001828103825260148152602001807f556e617574686f72697a6564206163636573732100000000000000000000000081525060200191505060405180910390fd5b336000809054906101000a900473ffffffffffffffffffffffffffffffffffffffff1673ffffffffffffffffffffffffffffffffffffffff16634be4ca206040518163ffffffff1660e01b815260040160206040518083038186803b158015610ae457600080fd5b505afa158015610af8573d6000803e3d6000fd5b505050506040513d6020811015610b0e57600080fd5b810190808051906020019092919050505073ffffffffffffffffffffffffffffffffffffffff16630a2eb301336040518263ffffffff1660e01b8152600401808273ffffffffffffffffffffffffffffffffffffffff1673ffffffffffffffffffffffffffffffffffffffff16815260200191505060206040518083038186803b158015610b9b57600080fd5b505afa158015610baf573d6000803e3d6000fd5b505050506040513d6020811015610bc557600080fd5b8101908080519060200190929190505050610c48576040517f08c379a00000000000000000000000000000000000000000000000000000000081526004018080602001828103825260148152602001807f556e617574686f72697a6564204163636573732100000000000000000000000081525060200191505060405180910390fd5b6000600460008673ffffffffffffffffffffffffffffffffffffffff1673ffffffffffffffffffffffffffffffffffffffff16815260200190815260200160002060006101000a81548160ff021916908315150217905550600015158473ffffffffffffffffffffffffffffffffffffffff163373ffffffffffffffffffffffffffffffffffffffff167fb1d7a469cec0b763a8421ded0cfa85fe843ae43275557dbda8786d19855a86be60405160405180910390a450505050565b6000600460008373ffffffffffffffffffffffffffffffffffffffff1673ffffffffffffffffffffffffffffffffffffffff16815260200190815260200160002060009054906101000a900460ff169050919050565b600360009054906101000a900473ffffffffffffffffffffffffffffffffffffffff1681565b600260009054906101000a900473ffffffffffffffffffffffffffffffffffffffff168156fea265627a7a72315820a6f37c40604991214f3a4d2d8867f63a12f16eeeb5d3d1cf25817aeab28ed14d64736f6c63430005100032",
  "source": "pragma solidity >=0.4.22 <0.7.0;\n\nimport './AdministratorDependent.sol';\nimport './UserDependent.sol';\n\ninterface IssuerInterface {\n    function grant(address _issuer) external payable;\n    \n    function revoke(address _issuer) external payable;\n    \n    function isIssuer(address _issuer) external view returns (bool);\n}\n\ncontract Issuer is AdministratorDependent, UserDependent, IssuerInterface {\n    \n    AdministratorProvider public administratorProvider;\n    UserProvider public userProvider;\n    \n    mapping (address => bool) issuerCollection;\n    \n    event IssuerManiuplated(address indexed _administrator, address indexed _issuer, bool indexed _active);\n    \n    constructor(AdministratorProvider _administratorProvider, UserProvider _userProvider)\n        onlyAdministrator(msg.sender)\n        AdministratorDependent(_administratorProvider)\n        UserDependent(_userProvider)\n    public {\n        administratorProvider = _administratorProvider;\n        userProvider = _userProvider;\n    }\n    \n    function grant(address _address)\n        onlyUser(_address)\n        onlyAdministrator(msg.sender)\n    public payable {\n        issuerCollection[_address] = true;\n        \n        emit IssuerManiuplated(msg.sender, _address, true);\n    }\n    \n    function revoke(address _issuer)\n        onlyUser(_issuer)\n        onlyAdministrator(msg.sender)\n    public payable {\n        issuerCollection[_issuer] = false;\n        \n        emit IssuerManiuplated(msg.sender, _issuer, false);\n    }\n    \n    function isIssuer(address _issuer) public view returns (bool) {\n        return issuerCollection[_issuer];\n    }\n}",
  "sourcePath": "/Users/muhammadtaimoor/Projects/ssid/contracts/Issuer.sol",
  "compiler": {
    "name": "solc",
    "version": "0.5.16+commit.9c3226ce.Emscripten.clang"
  },
  "schemaVersion": "3.3.2",
  "updatedAt": "2021-07-25T22:58:07.220Z",
  "devdoc": {
    "methods": {}
  },
  "userdoc": {
    "methods": {}
  }
}