{
  "contractName": "IssuerProvider",
  "abi": [
    {
      "inputs": [
        {
          "internalType": "contract IssuerInterface",
          "name": "_issuerCollection",
          "type": "address"
        }
      ],
      "payable": false,
      "stateMutability": "nonpayable",
      "type": "constructor"
    },
    {
      "constant": true,
      "inputs": [],
      "name": "issuerCollection",
      "outputs": [
        {
          "internalType": "contract IssuerInterface",
          "name": "",
          "type": "address"
        }
      ],
      "payable": false,
      "stateMutability": "view",
      "type": "function"
    },
    {
      "constant": true,
      "inputs": [],
      "name": "issuerProviderMinter",
      "outputs": [
        {
          "internalType": "address",
          "name": "",
          "type": "address"
        }
      ],
      "payable": false,
      "stateMutability": "view",
      "type": "function"
    },
    {
      "constant": false,
      "inputs": [
        {
          "internalType": "contract IssuerInterface",
          "name": "_issuerCollection",
          "type": "address"
        }
      ],
      "name": "setIssuerCollection",
      "outputs": [],
      "payable": true,
      "stateMutability": "payable",
      "type": "function"
    }
  ],
  "bytecode": "0x608060405234801561001057600080fd5b506040516103863803806103868339818101604052602081101561003357600080fd5b8101908080519060200190929190505050336000806101000a81548173ffffffffffffffffffffffffffffffffffffffff021916908373ffffffffffffffffffffffffffffffffffffffff16021790555080600160006101000a81548173ffffffffffffffffffffffffffffffffffffffff021916908373ffffffffffffffffffffffffffffffffffffffff160217905550506102b1806100d56000396000f3fe6080604052600436106100345760003560e01c8063842058221461003957806385f95e1d14610090578063af227c01146100d4575b600080fd5b34801561004557600080fd5b5061004e61012b565b604051808273ffffffffffffffffffffffffffffffffffffffff1673ffffffffffffffffffffffffffffffffffffffff16815260200191505060405180910390f35b6100d2600480360360208110156100a657600080fd5b81019080803573ffffffffffffffffffffffffffffffffffffffff169060200190929190505050610151565b005b3480156100e057600080fd5b506100e9610257565b604051808273ffffffffffffffffffffffffffffffffffffffff1673ffffffffffffffffffffffffffffffffffffffff16815260200191505060405180910390f35b600160009054906101000a900473ffffffffffffffffffffffffffffffffffffffff1681565b3373ffffffffffffffffffffffffffffffffffffffff166000809054906101000a900473ffffffffffffffffffffffffffffffffffffffff1673ffffffffffffffffffffffffffffffffffffffff1614610213576040517f08c379a00000000000000000000000000000000000000000000000000000000081526004018080602001828103825260148152602001807f556e617574686f72697a6564206163636573732100000000000000000000000081525060200191505060405180910390fd5b80600160006101000a81548173ffffffffffffffffffffffffffffffffffffffff021916908373ffffffffffffffffffffffffffffffffffffffff16021790555050565b6000809054906101000a900473ffffffffffffffffffffffffffffffffffffffff168156fea265627a7a7231582015518e9621d987360ea3ca7edb1dde60048e08b68c5ed7422902f037a0fe867864736f6c63430005100032",
  "source": "pragma solidity >=0.4.22 <0.7.0;\n\nimport './Issuer.sol';\n\ncontract IssuerProvider {\n    address public issuerProviderMinter;\n\n    IssuerInterface public issuerCollection;\n\n    constructor(IssuerInterface _issuerCollection) public {\n        issuerProviderMinter = msg.sender;\n\n        issuerCollection = _issuerCollection;\n    }\n\n    function setIssuerCollection(IssuerInterface _issuerCollection) payable public {\n        require (issuerProviderMinter == msg.sender, 'Unauthorized access!');\n\n        issuerCollection = _issuerCollection;\n    }\n}",
  "sourcePath": "/Users/muhammadtaimoor/Projects/ssid/contracts/IssuerProvider.sol",
  "compiler": {
    "name": "solc",
    "version": "0.5.16+commit.9c3226ce.Emscripten.clang"
  },
  "schemaVersion": "3.3.2",
  "updatedAt": "2021-07-25T22:58:07.229Z",
  "devdoc": {
    "methods": {}
  },
  "userdoc": {
    "methods": {}
  }
}