{
  "contractName": "UserDependent",
  "abi": [
    {
      "inputs": [
        {
          "internalType": "contract UserProvider",
          "name": "_userProvider",
          "type": "address"
        }
      ],
      "payable": false,
      "stateMutability": "nonpayable",
      "type": "constructor"
    },
    {
      "constant": true,
      "inputs": [],
      "name": "userProvider",
      "outputs": [
        {
          "internalType": "contract UserProvider",
          "name": "",
          "type": "address"
        }
      ],
      "payable": false,
      "stateMutability": "view",
      "type": "function"
    }
  ],
  "bytecode": "0x608060405234801561001057600080fd5b506040516101623803806101628339818101604052602081101561003357600080fd5b8101908080519060200190929190505050806000806101000a81548173ffffffffffffffffffffffffffffffffffffffff021916908373ffffffffffffffffffffffffffffffffffffffff1602179055505060cf806100936000396000f3fe6080604052348015600f57600080fd5b506004361060285760003560e01c8063c3bf488714602d575b600080fd5b60336075565b604051808273ffffffffffffffffffffffffffffffffffffffff1673ffffffffffffffffffffffffffffffffffffffff16815260200191505060405180910390f35b6000809054906101000a900473ffffffffffffffffffffffffffffffffffffffff168156fea265627a7a72315820fd9caea1b52d3beaa1500a1da149520060e58d00987d31babdbeaf757066e90964736f6c63430005100032",
  "source": "pragma solidity >= 0.4.22 < 0.7.0;\n\nimport './UserProvider.sol';\n\ncontract UserDependent {\n    UserProvider public userProvider;\n\n    constructor(UserProvider _userProvider) public {\n        userProvider = _userProvider;\n    }\n\n    modifier onlyUser(address _address) {\n        uint256 property = userProvider.userCollection().property(_address);\n        require(userProvider.userCollection().isUser(property) != 0, 'Unauthorized access!');\n        _;\n    }\n}",
  "sourcePath": "/Users/muhammadtaimoor/Projects/ssid/contracts/UserDependent.sol",
  "compiler": {
    "name": "solc",
    "version": "0.5.16+commit.9c3226ce.Emscripten.clang"
  },
  "schemaVersion": "3.3.2",
  "updatedAt": "2021-07-25T22:58:07.242Z",
  "devdoc": {
    "methods": {}
  },
  "userdoc": {
    "methods": {}
  }
}